:100000000C9475010C94BF030C94EC030C9419042C
:100010000C9446040C949D010C949D010C94730463
:100020000C949D010C949D010C94EF090C94760A9C
:100030000C949D010C949D010C949D010C949D01C8
:100040000C949D010C949D010C949D010C949D01B8
:100050000C949D020C949D010C949D010C94A004A1
:100060000C949D010C949D010C949D010C949D0198
:100070000C949D010C949D010C949D010C949D0188
:100080000C949D010C949D010C949D010C949D0178
:100090000C949D010C949D010C949D010C949D0168
:1000A0000C949D010C949D010C949D010000000096
:1000B000240027002A002D00300000000000250049
:1000C00028002B002E003100000000002300260035
:1000D00029002C002F000404040404030405020278
:1000E00002020403020202020606060606060404D1
:1000F00002020204040802011040804010204080E7
:10010000408008020401804020100201108010206D
:1001100040400000000200080E0000030401000B34
:1001200000000000000000000000000000000000CF
:10013000070605040100080A0B0C0D090501090258
:10014000A1010901A1008501050919012903150073
:10015000250195037501810295017505810305014E
:100160000930093109381581257F75089503810605
:10017000C0C005010906A1018502050719E029E7AC
:100180001500250175019508810295017508810307
:100190009506750815002565050719002965810074
:1001A000C00904020001030000000921010100014F
:1001B00022650007058403400001000000000000E4
:1001C00000002A2B280000000000000000000000B2
:1001D000000000000000000000002C9EB4A0A1A2BE
:1001E000A434A6A7A5AE362D3738271E1F202122FE
:1001F00023242526B333B62EB7B89F8485868788F7
:10020000898A8B8C8D8E8F909192939495969798E6
:10021000999A9B9C9D2F3130A3AD350405060708A4
:10022000090A0B0C0D0E0F101112131415161718C6
:10023000191A1B1C1DAFB1B0B50004030904220339
:10024000410072006400750069006E006F002000BC
:100250004D006900630072006F0020002000200044
:100260001803410072006400750069006E006F00A1
:1002700020004C004C00430012010002000000402E
:100280004123378000010102000112010002020037
:1002900000404123378000010102000100C180813C
:1002A000C1080B0002020201000904000001020261
:1002B00000000524001001052401010104240206A8
:1002C0000524060001070581031000400904010010
:1002D000020A000000070502024000000705830231
:1002E00040000000F9062909090C11241FBECFEFB8
:1002F000DAE0DEBFCDBF11E0A0E0B1E0E6E0FAE178
:1003000002C005900D92AC32B107D9F711E0ACE212
:10031000B1E001C01D92AA3BB107E1F712E0CAEEBD
:10032000D2E004C02297FE010E94FD0CC43ED1071A
:10033000C9F70E9439080C94010D0C94000083E168
:100340000E94970520912C0130912D01821B930B67
:10035000909331018093300182E10E9497052091B2
:100360002E0130912F01821B930B909333018093C8
:1003700032018091300190913101009759F06EE186
:1003800070E00E94D40C462F82E591E060E020E00E
:100390000E94EE078091320190913301009751F055
:1003A0006EE170E00E94D40C82E591E040E020E034
:1003B0000E94EE0782E00E948F06892B09F04AC056
:1003C0008091380190913901892B09F043C081E077
:1003D00090E0909339018093380182E591E062E0EA
:1003E0000E941D080FC08091380190913901892B1E
:1003F00049F0109239011092380182E591E062E0F3
:100400000E9415088091340190913501892B41F1AA
:100410008091360190913701892B11F581E090E0B0
:10042000909337018093360182E591E061E00E946C
:100430001D0808958091360190913701892BB1F004
:10044000109237011092360182E591E061E00E943E
:100450001508089582E00E948F06892B99F2C3CF78
:100460008091340190913501892B21F308950F93E8
:100470001F9382E160E00E94CF0583E160E00E946B
:10048000CF0582E060E00E94CF0583E060E00E943B
:10049000CF0582E061E00E945C060AE311E0C8013A
:1004A00040EA56E861E070E00E943303C80164E965
:1004B00072E02FEF3FEF4FEF5FEF0E943B0380E0D2
:1004C0006DE772E043E050E00E946A0368EE73E07B
:1004D00080E090E00E94E80483E10E9497059093F9
:1004E0002D0180932C0182E10E94970590932F01AA
:1004F00080932E011F910F91089581E090E09093D9
:100500008500809384008091340190913501892B7E
:1005100021F48AE391E00E945B0381E090E09093F4
:100520003501809334010895109235011092340101
:100530008AE391E00E94640308951F920F920FB620
:100540000F9211242F933F934F935F936F937F9359
:100550008F939F93AF93BF93EF93FF93E0913D01F0
:10056000F0913E010995FF91EF91BF91AF919F915D
:100570008F917F916F915F914F913F912F910F904C
:100580000FBE0F901F901895FC01A3E0440F551F5C
:10059000661F771FAA95D1F7403080E0580781E0A9
:1005A000680780E0780714F481E010C033E07595A7
:1005B0006795579547953A95D1F7403080E05807B1
:1005C00081E0680780E078071CF482E0828339C00C
:1005D00023E075956795579547952A95D1F7403053
:1005E00080E0580781E0680780E0780714F483E032
:1005F000EDCF92E075956795579547959A95D1F708
:10060000403080E0580781E0680780E0780714F404
:1006100084E0DCCF82E075956795579547958A957C
:10062000D1F7403080E0580781E0680780E0780724
:1006300014F485E0CBCF85E082834FEF5FEF60E07D
:1006400070E05183408350938700409386008091EF
:100650008100887F80938100809181009281892B25
:100660008093810008951092800020E12093810002
:100670000E94C40208950F931F93CF93DF93EC0160
:100680008B01121613061406150624F4BA01A901EB
:100690000E94C4021C830B8381E080936F007894D6
:1006A000809181009A81892B80938100DF91CF9185
:1006B0001F910F910895E1E8F0E02081DC0112968E
:1006C0008C91282B20830895E1E8F0E08081887FD9
:1006D00080830895853008F051C0E82FF0E0EE0FD8
:1006E000FF1FE15CFE4F71836083823009F183302C
:1006F00030F4882349F0813009F040C00DC08330C8
:1007000021F18430D9F52EC0809169008C7F842B33
:1007100080936900E89A089580916900440F551FFD
:10072000440F551F837F842B80936900E99A0895B5
:100730008091690034E0440F551F3A95E1F78F7CB2
:10074000842B80936900EA9A08958091690026E0DD
:10075000440F551F2A95E1F78F73842B809369000E
:10076000EB9A089580916A0094E0440F551F9A9582
:10077000E1F78F7C842B80936A00EE9A08951F9294
:100780000F920FB60F9211242F933F934F935F93C5
:100790006F937F938F939F93AF93BF93EF93FF9349
:1007A00080913F0190914001892B29F0E0913F0118
:1007B000F09140010995FF91EF91BF91AF919F9109
:1007C0008F917F916F915F914F913F912F910F90FA
:1007D0000FBE0F901F9018951F920F920FB60F9299
:1007E00011242F933F934F935F936F937F938F9336
:1007F0009F93AF93BF93EF93FF93809141019091AB
:100800004201892B29F0E0914101F09142010995C3
:10081000FF91EF91BF91AF919F918F917F916F91D8
:100820005F914F913F912F910F900FBE0F901F90AE
:1008300018951F920F920FB60F9211242F933F938A
:100840004F935F936F937F938F939F93AF93BF93D8
:10085000EF93FF938091430190914401892B29F0FC
:10086000E0914301F09144010995FF91EF91BF910F
:10087000AF919F918F917F916F915F914F913F9138
:100880002F910F900FBE0F901F9018951F920F92EF
:100890000FB60F9211242F933F934F935F936F9353
:1008A0007F938F939F93AF93BF93EF93FF93809129
:1008B000450190914601892B29F0E0914501F09185
:1008C00046010995FF91EF91BF91AF919F918F9153
:1008D0007F916F915F914F913F912F910F900FBE3C
:1008E0000F901F9018951F920F920FB60F92112420
:1008F0002F933F934F935F936F937F938F939F9328
:10090000AF93BF93EF93FF9380914701909148017C
:10091000892B29F0E0914701F09148010995FF9159
:10092000EF91BF91AF919F918F917F916F915F9167
:100930004F913F912F910F900FBE0F901F901895E0
:100940001F920F920FB60F9211242F933F938F9304
:100950009F93AF93BF9380914D0190914E01A091D1
:100960004F01B0915001309151010196A11DB11D6F
:10097000232F2D5F2D3720F02D570196A11DB11D7E
:100980002093510180934D0190934E01A0934F010C
:10099000B09350018091490190914A01A0914B017F
:1009A000B0914C010196A11DB11D80934901909316
:1009B0004A01A0934B01B0934C01BF91AF919F911D
:1009C0008F913F912F910F900FBE0F901F90189510
:1009D0009B01AC017FB7F8948091490190914A0145
:1009E000A0914B01B0914C0166B5A89B05C06F3F2B
:1009F00019F00196A11DB11D7FBFBA2FA92F982F05
:100A00008827860F911DA11DB11D62E0880F991FD7
:100A1000AA1FBB1F6A95D1F7BC012DC0FFB7F89480
:100A20008091490190914A01A0914B01B0914C01F4
:100A3000E6B5A89B05C0EF3F19F00196A11DB11DB9
:100A4000FFBFBA2FA92F982F88278E0F911DA11DA8
:100A5000B11DE2E0880F991FAA1FBB1FEA95D1F7CD
:100A6000861B970B885E9340C8F22150304040406F
:100A7000504068517C4F211531054105510571F6F3
:100A80000895789484B5826084BD84B5816084BD06
:100A900085B5826085BD85B5816085BDEEE6F0E0F7
:100AA000808181608083E1E8F0E010828081826053
:100AB0008083808181608083E0E8F0E080818160D4
:100AC0008083E1E9F0E080818260808380818160C1
:100AD0008083E0E9F0E0808181608083E1ECF0E0F8
:100AE0008081846080838081826080838081816056
:100AF0008083E3ECF0E0808181608083E0ECF0E0D3
:100B0000808182608083E2ECF0E08081816080837C
:100B1000EAE7F0E080818460808380818260808366
:100B200080818160808380818068808308958231A4
:100B300008F08251E82FF0E0E05DFE4FE491209153
:100B40007B008E2F86958695869590E081709070BB
:100B500035E0880F991F3A95E1F72F7D282B2093D8
:100B60007B00E770809100018295880F880F807C60
:100B70008E2B80937C0080917A00806480937A0031
:100B800080917A0086FDFCCF209178004091790019
:100B9000942F80E030E0282B392BC9010895CF93A2
:100BA000DF93482F50E0CA018C509F4FFC013491D5
:100BB0004A525F4FFA018491882369F190E0880FCF
:100BC000991FFC01E455FF4FA591B491FC01E65437
:100BD000FF4FC591D491662351F42FB7F8948C91AF
:100BE000932F909589238C93888189230BC0623041
:100BF00061F42FB7F8948C91932F909589238C935F
:100C00008881832B88832FBF06C09FB7F8948C916F
:100C1000832B8C939FBFDF91CF910895883071F122
:100C2000893068F4823031F1833020F4813009F06A
:100C300042C01DC0833089F08430E9F512C08B308A
:100C400059F18C3028F48930E9F08A30A1F51EC0C2
:100C50008C3031F18E3079F529C0809180008F770A
:100C600003C0809180008F7D80938000089584B5BB
:100C70008F7702C084B58F7D84BD089580919000E8
:100C80008F7707C0809190008F7D03C08091900086
:100C9000877F8093900008958091C0008F7703C074
:100CA0008091C0008F7D8093C00008958091C20024
:100CB000877F8093C2000895FF920F931F93F62EB3
:100CC000482F50E0CA018E5E9E4FFC012491CA015C
:100CD0008C509F4FFC0114914A525F4FFA010491CE
:100CE0000023C9F0222319F0822F0E940E06E02F64
:100CF000F0E0EE0FFF1FE654FF4FA591B4919FB7B0
:100D0000F894FF2021F48C911095812302C08C91DE
:100D1000812B8C939FBF1F910F91FF9008950F938C
:100D20001F93482F50E0CA018E5E9E4FFC01249114
:100D3000CA018C509F4FFC0104914A525F4FFA0147
:100D40001491112319F420E030E015C0222319F08A
:100D5000822F0E940E06812F90E0880F991F8853E2
:100D60009F4FFC01A591B4918C9120E030E080234D
:100D700011F021E030E0C9011F910F910895FC01AD
:100D800091818081813A31F4913089F080E0933013
:100D900089F40DC0813269F49B3021F48281809303
:100DA000010105C09A3029F482818093020181E01B
:100DB000089580E00895EF92FF920F931F938C01A6
:100DC000E62EDC01ED91FC910480F581E02D099582
:100DD000F82ED801ED91FC910680F781E02DC80135
:100DE0006E2D09958F2D90E01F910F91FF90EF9040
:100DF00008951092520110925601109255018FE001
:100E000091E090935401809353010895EF92FF92E3
:100E10000F931F93DF93CF930F92CDB7DEB78983E4
:100E20008B017A0184E0BE016F5F7F4F41E050E0AB
:100E30000E944A0984E4B801A7010E944A090F9060
:100E4000CF91DF911F910F91FF90EF90089582E075
:100E500048E050E00E9406070895FC0116821782C0
:100E6000108611861286138614823496BF010E9462
:100E700027070895DC01683810F0685829C0E62F6C
:100E8000F0E067FF13C0E058F04081E090E002C05E
:100E9000880F991FEA95E2F7809514962C91149784
:100EA000282314962C93149760E012C0E654FE4F4A
:100EB0006491662319F420E030E01DC067FF08C08C
:100EC00014968C9114978D7F14968C9314976F774A
:100ED000FD0190E0662321F08681861709F41682D1
:100EE0009F5F31969630B1F7CD011496BD010E94F7
:100EF000270721E030E0C9010895CF93DF93DC019B
:100F0000683810F0685825C0E62FF0E067FF12C07F
:100F1000E058F04081E090E002C0880F991FEA9508
:100F2000E2F714962C911497282B14962C9314976F
:100F300060E00FC0E654FE4F64916623D9F167FF6D
:100F400008C014968C911497826014968C93149711
:100F50006F7716968C9116978617A9F117968C9134
:100F60001797861781F118968C911897861759F163
:100F700019968C911997861731F11A968C911A97B8
:100F8000861709F11B968C911B978617E1F0ED01EE
:100F9000E0E0F0E09E2F8E81882321F4EA0FFB1F12
:100FA000668306C09F5F31962196E630F10591F782
:100FB000963049F481E090E013969C938E931297BB
:100FC00020E030E007C0CD011496BD010E94270744
:100FD00021E030E0C901DF91CF910895DF93CF93F5
:100FE00000D000D0CDB7DEB7FC01808189836A8351
:100FF0004B832C8381E0BE016F5F7F4F44E050E064
:101000000E9406070F900F900F900F90CF91DF91E5
:101010000895FC018081681739F06083CF0160E09A
:1010200040E020E00E94EE070895FC0160952081D9
:101030002623622F0E9409080895FC01862F6081F3
:10104000682BCF010E940908089580E86CE371E0E5
:1010500045E650E00E94C3080895FC0180818F5F3F
:10106000808380E861EA71E049E150E00E94C308B2
:101070000895CF93DF930E94410587E691E00E9497
:101080002A090E943702C0E0D0E00E949F01209709
:10109000E1F30E940000F9CFCF92DF92EF92FF922E
:1010A0000F931F93CF93DF937C016B018A01C0E004
:1010B000D0E00FC0D6016D916D01D701ED91FC918B
:1010C0000190F081E02DC7010995C80FD91F01508B
:1010D00010400115110571F7CE01DF91CF911F91DD
:1010E0000F91FF90EF90DF90CF900895282F80917F
:1010F00061018823C1F057FF1AC015C0289A909348
:1011000060018091F1008193E217F307B9F741156F
:10111000510539F08091F200882319F48BE6809311
:10112000E800AFBF02C04FEF5FEFCA010895AFB74D
:10113000F89427702093E9008091F200282F30E086
:10114000241735070CF4A901FB019B01240F311D65
:1011500094E6DACFDF93CF930F92CDB7DEB7BE011F
:101160006F5F7F4F41E050E00E947608019719F0D1
:101170002FEF3FEF03C08981282F30E0C9010F9086
:10118000CF91DF910895FF920F931F93F82E142FA4
:10119000052F4091640150916501212F302FC90125
:1011A000DC01FB016EEF29C0F7FE02C0949101C083
:1011B0009081209162013091630124173507ACF4CE
:1011C0008091E8008570E1F38091E80082FF03C020
:1011D0002FEF3FEF17C09093F100C90101968F7375
:1011E0009070892B11F46093E8002F5F3F4F30938C
:1011F000630120936201119731961097A9F6812F10
:10120000902F9C01C9011F910F91FF9008959C019F
:101210008091E80082FFFCCFF901260F311D03C049
:101220008091F1008193E217F307D1F7289A84E6C1
:10123000809360018BEF8093E800CB010895809349
:10124000E9008091F200882319F08AE38093E80096
:10125000089508951092610181E08093D70080EA9B
:101260008093D80082E189BD09B400FEFDCF61E022
:1012700070E080E090E00E94E80480E98093D8006C
:101280008CE08093E2001092E000559A209A5D98DD
:10129000289808955F926F927F928F929F92AF925B
:1012A000BF92CF92DF92EF92FF920F931F93CF9353
:1012B000DF93E82E842E752E80916101882371F1D1
:1012C0008B01242F352FC901EC017AEFF72E67E04F
:1012D000962E9E2050E4552E8E2D90E040E2A42EB6
:1012E000B12CA822B9223AE3632E20E4C22ED12CDD
:1012F000C822D92258C09FB7F8949092E9008091F3
:10130000E80085FD02C020E004C08091F200252D98
:10131000281B9FBF222361F4FA9419F42FEF3FEFAB
:101320004DC061E070E080E090E00E94E8043BC0C6
:10133000822F90E0C817D9070CF42C2FC21BD109BB
:101340004FB7F8949092E900A114B10421F406C0BB
:101350001092F10021502223D9F719C0E7FC03C0F5
:10136000F801922F10C0C801322F06C0FC0101966F
:10137000E491E093F10031503323C1F706C081912D
:101380008093F10091509923D1F7020F111D8091A4
:10139000E80085FF05C0209729F4C114D10411F09D
:1013A0006092E8004FBF209709F0A5CF5D9A84E6D0
:1013B00080935F01282D372DC9019C01C901DF9160
:1013C000CF911F910F91FF90EF90DF90CF90BF9042
:1013D000AF909F908F907F906F905F9008951F9235
:1013E0000F920FB60F9211242F933F934F935F9359
:1013F0006F937F938F939F93AF93BF93EF93FF93DD
:101400008091E1001092E100982F83FF0FC01092AD
:10141000E90081E08093EB001092EC0082E380937E
:10142000ED001092610188E08093F00092FF34C0DB
:1014300083E08093E9008091F200882319F08AE329
:101440008093E8008FB7F89492E09093E900909130
:10145000F2008FBF992321F08CEA91E00E944C0C9E
:1014600080915F01882351F080915F0181508093CA
:101470005F0180915F01882309F45D98809160018C
:10148000882351F0809160018150809360018091A8
:101490006001882309F42898FF91EF91BF91AF91E3
:1014A0009F918F917F916F915F914F913F912F917C
:1014B0000F900FBE0F901F9018950F931F93DF93FF
:1014C000CF930F92CDB7DEB719828E010F5F1F4FFA
:1014D000C8010E94720CC8010E942D08898190E009
:1014E0000F90CF91DF911F910F9108951F920F924E
:1014F0000FB60F921124EF92FF921F932F933F93F9
:101500004F935F936F937F938F939F93AF93BF930B
:10151000EF93FF93DF93CF93CDB7DEB76197DEBF35
:10152000CDBF1092E9008091E80083FF0FC1FE015A
:1015300031969E01275F3F4F03C08091F100819358
:10154000E217F307D1F7289A84E68093600182EFCF
:101550008093E800998197FF05C08091E80080FFA3
:10156000FCCF03C08EEF8093E800292F30E0C90143
:1015700080769070892B09F0C2C08A81882329F473
:101580001092F1001092F100D6C0813009F4D3C05E
:10159000833009F4D0C0853049F48091E80080FFA1
:1015A000FCCF8B8180688093E300C5C0863009F052
:1015B0007CC01C81EF80F8841230C1F51092E900E4
:1015C0001092630110926201109265011092640101
:1015D0000E945D0A99E0FE013996DF01292F1D92D4
:1015E0002A95E9F799871A8791E09E8790E8988B6A
:1015F0009AEF998B2091620130916301275F3F4FF1
:101600003C872B878D871092E9001092630110921E
:101610006201F0926501E092640180E0BF0149E05F
:1016200050E00E94C3080E945D0A85C01092E90044
:101630001092630110926201F0926501E0926401E0
:10164000123241F482E290E00E942508892B09F4CD
:1016500076C071C0113079F488E0E816F10419F40D
:1016600081E08093660180916601882309F06BC058
:10167000E8E7F2E013C0133009F061C08B818823E2
:1016800019F4EAE3F2E00AC0823019F4EEE3F2E082
:1016900005C0813009F053C0E0E6F2E0449180E8F3
:1016A000BF0150E00E94C30846C0873009F447C01C
:1016B000883021F481E08093F1003DC08930D9F574
:1016C00023703070232BD9F5EDE9F2E091E031E0A1
:1016D00026E39093E9003093EB0084918093EC0033
:1016E0002093ED009F5F3196953099F78EE78093B8
:1016F000EA001092EA008B81809361011CC08F8107
:1017000098851092E9001092630110926201909303
:101710006501809364018D81882329F4CE010196AF
:101720000E947E0C06C0823051F4CE0101960E94C8
:10173000BF06882321F08EEF8093E80007C081E286
:101740008093EB0003C0EAE8F2E0A8CF6196DEBF29
:10175000CDBFCF91DF91FF91EF91BF91AF919F915D
:101760008F917F916F915F914F913F912F911F9139
:10177000FF90EF900F900FBE0F901F901895209143
:10178000A8013091A9018091AA019091AB01281B79
:10179000390B2F733070C90108952091A801309141
:1017A000A9018091AA019091AB012817390719F47A
:1017B0002FEF3FEF09C0E091AA01F091AB01E8598A
:1017C000FE4F8081282F30E0C90108952091A801A3
:1017D0003091A9018091AA019091AB012817390796
:1017E00019F42FEF3FEF13C0E091AA01F091AB0184
:1017F000E859FE4F20818091AA019091AB0101969A
:101800008F7390709093AB018093AA0130E0C9016F
:1018100008951092AF011092AE0188EE93E0A0E01F
:10182000B0E08093B0019093B101A093B201B09366
:10183000B3018DE191E09093AD018093AC010895E7
:101840000F931F93DF93CF930F92CDB7DEB78C0129
:10185000698380910A01882369F083E0BE016F5F8C
:101860007F4F41E050E00E944A091816190614F40F
:101870009C0107C081E090E0F8019383828320E01F
:1018800030E0C9010F90CF91DF911F910F91089522
:1018900083E00E941F090895CF93DF9312C082E076
:1018A0000E94AA082FEF8F3F9207C9F0E091A8018C
:1018B000F091A901E859FE4F8083D093A901C0930C
:1018C000A801C091A801D091A9012196CF73D07031
:1018D0008091AA019091AB01C817D90701F7DF9158
:1018E000CF910895FC0180818E5F808380E861EA5A
:1018F00072E042E450E00E94C3080895FC01818137
:101900009081913A59F4813209F04CC080E063E053
:1019100071E047E050E00E94C30842C0913209F0F4
:1019200041C0803239F483E091E067E070E00E94CA
:10193000070936C0823209F035C0828180930A01DE
:101940008091030190910401A0910501B0910601DD
:10195000805B9440A040B04019F580910A0180FD61
:1019600012C087E797E790930108809300082BE067
:1019700088E190E00FB6F894A895809360000FBEC0
:10198000209360000DC088E10FB6F894809360004A
:10199000109260000FBEA8951092010810920008E6
:1019A00081E0089580E0089597FB092E07260AD06C
:1019B00077FD04D00CD006D000201AF47095619504
:1019C0007F4F0895F6F7909581959F4F0895AA1B34
:1019D000BB1B51E107C0AA1FBB1FA617B70710F01A
:1019E000A61BB70B881F991F5A95A9F7809590954C
:1019F000BC01CD010895EE0FFF1F0590F491E02D7D
:061A00000994F894FFCFE9
:101A060001010100E100000000000000000000DB11
:101A1600064C087D073A072D0700000000200C4CF5
:0C1A260008BF0BE60BCD0B480C4C0C006D
:00000001FF
